:020000040800F2
:100000000000022005A80008B5A40008B7A4000855
:10001000B9A40008BBA40008BDA4000800000000AB
:10002000000000000000000000000000B1630008B4
:10003000BFA400080000000041640008C1A400083B
:1000400055A8000855A8000855A8000855A800089C
:1000500055A8000855A8000855A8000855A800088C
:1000600055A8000855A8000855A8000855A800087C
:1000700055A8000855A8000855A8000855A800086C
:1000800055A8000855A8000855A8000855A800085C
:1000900055A8000855A8000855A8000855A800084C
:1000A00055A8000855A8000855A8000855A800083C
:1000B00055A8000855A8000855A8000855A800082C
:1000C00055A80008D1A40008DDA4000855A8000820
:1000D00055A80008E9A40008F5A4000801A5000837
:1000E00055A8000855A8000855A8000855A80008FC
:1000F00055A8000855A8000855A8000855A80008EC
:1001000055A800080DA5000855A8000855A8000826
:1001100019A5000855A8000855A8000855A800080A
:1001200055A8000855A8000855A8000825A50008EE
:1001300055A8000855A8000855A8000855A80008AB
:1001400055A8000855A8000855A8000855A800089B
:1001500055A8000831A5000855A800083DA50008CD
:1001600049A5000855A5000855A8000855A800088D
:1001700055A8000855A8000855A800080000000070
:0801800055A8000855A800086D
:1001900010B5054C237833B9044B13B10448AFF3C1
:1001A00000800123237010BD7C00002000000000AF
:1001B0000CC8000808B5034B1BB103490348AFF353
:1001C000008008BD00000000800000200CC800086E
:1001D00001F0FF01102A2BDB10F0070F08D010F8F8
:1001E000013B013A8B422DD010F0070F42B3F6D1FC
:1001F000F0B441EA012141EA014122F007047FF015
:1002000000070023F0E80256083C85EA010586EA6B
:10021000010685FA47F5A3FA87F586FA47F6A5FAA7
:1002200087F68EB9EED1F0BC01F0FF0102F00702B3
:1002300032B110F8013B013A83EA010313B1F8D15E
:100240000020704701387047002D06BF354603383F
:10025000073815F0010F07D1013015F4807F02BF78
:10026000013015F4C03F0130F0BC0138704700BFC9
:1002700081F0004102E000BF83F0004330B54FEA57
:1002800041044FEA430594EA050F08BF90EA020FC4
:100290001FBF54EA000C55EA020C7FEA645C7FEA57
:1002A000655C00F0E2804FEA5454D4EB5555B8BF7A
:1002B0006D420CDD2C4480EA020281EA030382EAEB
:1002C000000083EA010180EA020281EA0303362D7D
:1002D00088BF30BD11F0004F4FEA01314FF4801C50
:1002E0004CEA113102D0404261EB410113F0004F62
:1002F0004FEA03334CEA133302D0524263EB430319
:1003000094EA050F00F0A780A4F10104D5F1200EB6
:100310000DDB02FA0EFC22FA05F2801841F1000111
:1003200003FA0EF2801843FA05F359410EE0A5F1E5
:1003300020050EF1200E012A03FA0EFC28BF4CF016
:10034000020C43FA05F3C01851EBE37101F00045CC
:1003500007D54FF0000EDCF1000C7EEB00006EEBD9
:100360000101B1F5801F1BD3B1F5001F0CD3490863
:100370005FEA30004FEA3C0C04F101044FEA4452BA
:1003800012F5800F80F09A80BCF1004F08BF5FEA41
:10039000500C50F1000041EB045141EA050130BD21
:1003A0005FEA4C0C404141EB010111F4801FA4F1C4
:1003B0000104E9D191F0000F04BF01460020B1FA19
:1003C00081F308BF2033A3F10B03B3F120020CDA51
:1003D0000C3208DD02F1140CC2F10C0201FA0CF02F
:1003E00021FA02F10CE002F11402D8BFC2F1200C94
:1003F00001FA02F120FA0CFCDCBF41EA0C0190404A
:10040000E41AA2BF01EB0451294330BD6FEA040492
:100410001F3C1CDA0C340EDC04F11404C4F120027D
:1004200020FA04F001FA02F340EA030021FA04F38F
:1004300045EA030130BDC4F10C04C4F1200220FAE6
:1004400002F001FA04F340EA0300294630BD21FA24
:1004500004F0294630BD94F0000F83F4801306BFEA
:1004600081F480110134013D4EE77FEA645C18BFDE
:100470007FEA655C29D094EA050F08BF90EA020F75
:1004800005D054EA000C04BF1946104630BD91EA6D
:10049000030F1EBF0021002030BD5FEA545C05D170
:1004A0004000494128BF41F0004130BD14F58004AF
:1004B0003CBF01F5801130BD01F0004545F0FE4123
:1004C00041F470014FF0000030BD7FEA645C1ABF58
:1004D000194610467FEA655C1CBF0B46024650EA8F
:1004E000013406BF52EA033591EA030F41F40021BB
:1004F00030BD00BF90F0000F04BF0021704730B541
:100500004FF4806404F132044FF000054FF0000115
:1005100050E700BF90F0000F04BF0021704730B5D6
:100520004FF4806404F1320410F0004548BF4042AB
:100530004FF000013EE700BF42004FEAE2014FEA00
:1005400031014FEA02701FBF12F07F4393F07F4FDB
:1005500081F06051704792F0000F14BF93F07F4F0D
:10056000704730B54FF4607401F0004521F0004150
:1005700020E700BF50EA010208BF704730B54FF0D6
:1005800000050AE050EA010208BF704730B511F0DB
:10059000004502D5404261EB41014FF4806404F113
:1005A00032045FEA915C3FF4DCAE4FF003025FEA95
:1005B000DC0C18BF03325FEADC0C18BF033202EB1D
:1005C000DC02C2F1200300FA03FC20FA02F001FA77
:1005D00003FE40EA0E0021FA02F11444C1E600BF16
:1005E00070B54FF0FF0C4CF4E06C1CEA11541DBFC9
:1005F0001CEA135594EA0C0F95EA0C0F00F0DEF894
:100600002C4481EA030621EA4C5123EA4C5350EA78
:10061000013518BF52EA033541F4801143F48013C9
:1006200038D0A0FB02CE4FF00005E1FB02E506F05A
:100630000042E0FB03E54FF00006E1FB03569CF0AF
:10064000000F18BF4EF0010EA4F1FF04B6F5007FB5
:1006500064F5407404D25FEA4E0E6D4146EB060627
:1006600042EAC62141EA55514FEAC52040EA5E50B0
:100670004FEACE2EB4F1FD0C88BFBCF5E06F1ED85A
:10068000BEF1004F08BF5FEA500E50F1000041EB91
:10069000045170BD06F0004646EA010140EA02003E
:1006A00081EA0301B4EB5C04C2BFD4EB0C0541EA60
:1006B000045170BD41F480114FF0000E013C00F375
:1006C000AB8014F1360FDEBF002001F0004170BD99
:1006D000C4F10004203C35DA0C341BDC04F11404B2
:1006E000C4F1200500FA05F320FA04F001FA05F23E
:1006F00040EA020001F0004221F0004110EBD3700B
:1007000021FA04F642EB06015EEA430E08BF20EA36
:10071000D37070BDC4F10C04C4F1200500FA04F3D9
:1007200020FA05F001FA04F240EA020001F000416B
:1007300010EBD37041F100015EEA430E08BF20EADE
:10074000D37070BDC4F1200500FA05F24EEA020E26
:1007500020FA04F301FA05F243EA020321FA04F055
:1007600001F0004121FA04F220EA020000EBD3700C
:100770005EEA430E08BF20EAD37070BD94F0000F0C
:100780000FD101F00046400041EB010111F4801F40
:1007900008BF013CF7D041EA060195F0000F18BFF1
:1007A000704703F00046520043EB030313F4801F2D
:1007B00008BF013DF7D043EA0603704794EA0C0FE7
:1007C0000CEA135518BF95EA0C0F0CD050EA4106FD
:1007D00018BF52EA4306D1D181EA030101F000417A
:1007E0004FF0000070BD50EA410606BF10461946A2
:1007F00052EA430619D094EA0C0F02D150EA0136AE
:1008000013D195EA0C0F05D152EA03361CBF1046EE
:1008100019460AD181EA030101F0004141F0FE418D
:1008200041F470014FF0000070BD41F0FE4141F411
:10083000780170BD70B54FF0FF0C4CF4E06C1CEA11
:1008400011541DBF1CEA135594EA0C0F95EA0C0FC6
:1008500000F0A7F8A4EB050481EA030E52EA033581
:100860004FEA013100F088804FEA03334FF08055A2
:1008700045EA131343EA12634FEA022245EA1115CF
:1008800045EA10654FEA00260EF000419D4208BF80
:10089000964244F1FD0404F5407402D25B084FEA2D
:1008A0003202B61A65EB03055B084FEA32024FF4D9
:1008B00080104FF4002CB6EB020E75EB030E22BF36
:1008C000B61A754640EA0C005B084FEA3202B6EBF6
:1008D000020E75EB030E22BFB61A754640EA5C00A5
:1008E0005B084FEA3202B6EB020E75EB030E22BF35
:1008F000B61A754640EA9C005B084FEA3202B6EB36
:10090000020E75EB030E22BFB61A754640EADC00F4
:1009100055EA060E18D04FEA051545EA16754FEA56
:1009200006164FEAC30343EA52734FEAC2025FEA74
:100930001C1CC0D111F4801F0BD141EA00014FF003
:1009400000004FF0004CB6E711F4801F04BF0143D4
:100950000020B4F1FD0C88BFBCF5E06F3FF6AFAEF0
:10096000B5EB030C04BFB6EB020C5FEA500C50F180
:10097000000041EB045170BD0EF0004E4EEA113103
:1009800014EB5C04C2BFD4EB0C0541EA045170BD0A
:1009900041F480114FF0000E013C90E645EA060E4E
:1009A0008DE60CEA135594EA0C0F08BF95EA0C0F7C
:1009B0003FF43BAF94EA0C0F0AD150EA01347FF4C4
:1009C00034AF95EA0C0F7FF425AF104619462CE79B
:1009D00095EA0C0F06D152EA03353FF4FDAE1046FE
:1009E000194622E750EA410618BF52EA43067FF44F
:1009F000C5AE50EA41047FF40DAF52EA43057FF4DF
:100A0000EBAE12E74FF0FF3C06E000BF4FF0010CE9
:100A100002E000BF4FF0010C4DF804CD4FEA410C4D
:100A20007FEA6C5C4FEA430C18BF7FEA6C5C1BD01A
:100A300001B050EA410C0CBF52EA430C91EA030F9B
:100A400002BF90EA020F0020704710F1000F91EAF8
:100A5000030F58BF994208BF90422CBFD8176FEAC6
:100A6000E37040F0010070474FEA410C7FEA6C5C94
:100A700002D150EA013C07D14FEA430C7FEA6C5C9B
:100A8000D6D152EA033CD3D05DF8040B704700BFC7
:100A90008446104662468C461946634600E000BF15
:100AA00001B5FFF7B7FF002848BF10F1000F01BDE7
:100AB0004DF808EDFFF7F4FF0CBF012000205DF8B2
:100AC00008FB00BF4DF808EDFFF7EAFF34BF012037
:100AD00000205DF808FB00BF4DF808EDFFF7E0FFD0
:100AE00094BF012000205DF808FB00BF4DF808ED21
:100AF000FFF7CEFF94BF012000205DF808FB00BF88
:100B00004DF808EDFFF7C4FF34BF012000205DF869
:100B100008FB00BF4FEA410C7FEA6C5C02D150EA4F
:100B2000013C0AD14FEA430C7FEA6C5C02D152EAE5
:100B3000033C02D14FF0000070474FF001007047B6
:100B40004FEA4102B2F1E04324BFB3F5001CDCF1EF
:100B5000FE5C0DD901F0004C4FEAC0024CEA507027
:100B6000B2F1004F40EB830008BF20F00100704756
:100B700011F0804F21D113F13872BCBF01F0004059
:100B8000704741F480114FEA5252C2F11802C2F18B
:100B9000200C10FA0CF320FA02F018BF40F001000C
:100BA0004FEAC1234FEAD32303FA0CFC40EA0C00BE
:100BB00023FA02F34FEA4303CCE77FEA625307D1FB
:100BC00050EA01331EBF4FF0FE4040F44000704732
:100BD00001F0004040F0FE4040F40000704700BFCC
:100BE00053B94AB9002908BF00281CBF4FF0FF3194
:100BF0004FF0FF3000F07AB9ADF1080C6DE904CE8A
:100C000000F006F8DDF804E0DDE9022304B07047E7
:100C10002DE9F0478C460D460446089E002B51D125
:100C20008A4217466DD9B2FA82FEBEF1000F0BD090
:100C3000CEF1200C01FA0EF520FA0CFC02FA0EF7A8
:100C40004CEA050C00FA0EF44FEA174A250CBCFBDF
:100C5000FAF81FFA87F90AFB18CC45EA0C4508FB9D
:100C600009F3AB420AD9ED1908F1FF3280F0238174
:100C7000AB4240F22081A8F102083D44ED1AA4B233
:100C8000B5FBFAF00AFB105544EA054400FB09F9EC
:100C9000A14509D9E41900F1FF3380F00A81A1458B
:100CA00040F2078102383C44A4EB090440EA0840C2
:100CB0000021002E61D024FA0EF40023346073600A
:100CC000BDE8F0878B4207D9002E54D0002186E87A
:100CD00021000846BDE8F087B3FA83F1002940F00F
:100CE0008E80AB4202D3824200F2FA80841A65EB16
:100CF00003050120AC46002E3FD086E81010BDE869
:100D0000F08712B90127B7FBF2F7B7FA87FEBEF1F9
:100D1000000F34D1EB1B3A0C1FFA87FC0121B3FB07
:100D2000F2F8250C02FB183345EA03450CFB08F3E7
:100D3000AB4207D9ED1908F1FF3002D2AB4200F205
:100D4000D1808046ED1AA3B2B5FBF2F002FB10553C
:100D500043EA05440CFB00FCA44507D9E41900F163
:100D6000FF3302D2A44500F2B8801846A4EB0C046D
:100D700040EA08409DE731463046BDE8F087CEF1B5
:100D8000200405FA0EF307FA0EF720FA04F83A0CDD
:100D900025FA04F448EA0308B4FBF2F14FEA1845D7
:100DA00002FB11441FFA87FC45EA044501FB0CF3E2
:100DB000AB4200FA0EF409D9ED1901F1FF3080F0D1
:100DC0008A80AB4240F2878002393D44EB1A1FFA19
:100DD00088F5B3FBF2F002FB103345EA034500FB54
:100DE0000CF3AB4207D9ED1900F1FF386FD2AB42DB
:100DF0006DD902383D44EB1A40EA01418FE7C1F159
:100E0000200722FA07F88B4005FA01F448EA0303A9
:100E100020FA07FE4FEA134CFD404EEA040EB5FBE4
:100E2000FCF94FEA1E440CFB19551FFA83F844EAFB
:100E3000054509FB08F4AC4202FA01F200FA01FA96
:100E400008D9ED1809F1FF3043D2AC4241D9A9F1DC
:100E500002091D442D1B1FFA8EFEB5FBFCF00CFB96
:100E600010554EEA054400FB08F8A04507D9E418E0
:100E700000F1FF3529D2A04527D902381C4440EAA9
:100E80000940A4EB0804A0FB02894C45C6464D4628
:100E900015D312D056B1BAEB0E0364EB050404FA75
:100EA00007F7CB401F43CC40376074600021BDE89A
:100EB000F0871846F8E69046E0E6C245EAD2B8EB7D
:100EC000020E69EB03050138E4E72846D7E7404600
:100ED00091E78146BEE7014678E702383C4445E7A2
:100EE000084608E7A8F102083D442BE7704700BF19
:100EF00038B50E4A0E4B054618784FF47A73B3FB9B
:100F0000F0F31068B0FBF3F000F0E6F9044658B9CE
:100F10000F2D09D8024629464FF0FF3000F09AF90C
:100F2000044B20461D6038BD012038BD1000002054
:100F3000000000200400002008B50B4B1A6842F4A2
:100F400000721A601A6842F480621A601A6842F4E9
:100F500080721A60032000F06BF90F20FFF7C8FFC2
:100F600008F0E4FF002008BD003C0240034A044BA7
:100F700011681B780B441360704700BFE8420020E3
:100F800000000020014B1868704700BFE8420020B5
:100F900038B50446FFF7F6FF631C1CBF054B1B78F2
:100FA000054618BFE418FFF7EDFF401B8442FAD84E
:100FB00038BD00BF0000002038B50446002800F00E
:100FC0009B80056C25B908F0D3FF656484F83C501C
:100FD000236CDB0600F18E80236C23F4885323F00E
:100FE000020343F002032364444B5A6822F4403264
:100FF0005A605A6861680A435A60236821695A68CE
:1010000022F480725A605A6842EA01225A605A6891
:10101000A16822F040725A605A680A435A609A687E
:10102000E16822F400629A609A680A439A6034493F
:10103000A26A8A4252D0996821F0706199609968D9
:101040000A439A609A68E16A22F040529A609A686C
:101050000A439A609A68217E22F002029A609A6896
:1010600042EA41029A6094F82020002A3ED05A6851
:10107000616A42F400625A605A6822F460425A601F
:101080005A68013942EA41325A60DA6AE16922F467
:101090007002DA62DA6A013942EA0152DA629A6867
:1010A00094F8301022F400729A609A6842EA412261
:1010B0009A609A68616922F480629A609A68002056
:1010C00042EA81229A606064236C23F0030343F0B8
:1010D00001032364002384F83C3038BD9A6822F071
:1010E00070629A609A6822F04052B2E75A6822F41D
:1010F0000062C9E70120EDE7012038BD002301406F
:101100000100000FF7B50023019390F83C30012B4C
:1011100000F083800D6804688A680123092D80F837
:101120003C30AEB22AD906EB4603E7681E3B4FF0CF
:10113000070E0EFA03FE27EA0E07E760E76802FAD9
:1011400003F33B43E3604A68062A4FEA820325D84B
:101150001344676B591F1F238B4027EA0303636304
:10116000626B06FA01F1114361632D4B9C4234D04E
:10117000002380F83C30184603B0F0BD276905EB2A
:1011800045034FF0070E0EFA03FE27EA0E0727610C
:10119000276902FA03F33B432361D4E70C2A0ED8F4
:1011A0001344216BA3F123021F23934021EA03037D
:1011B0002363236B06FA02F21A432263D5E7134432
:1011C000E16A413B1F229A4021EA0202E262E26A9E
:1011D00006FA03F11143E162C7E7122D04D1114A67
:1011E000536843F480035360A5F11003012BBFD86B
:1011F0000C4A5368102D43F400035360B8D10A4BD6
:101200000A4A1B68B3FBF2F20A2353430193019B82
:10121000002BADD0019B013BF8E70220ACE700BFFB
:1012200000200140002301401000002040420F0038
:10123000074AD36823F4E0631B041B0C43F0BF632D
:10124000000243F4003300F4E0600343D3607047CE
:1012500000ED00E0174B30B5DC68C4F30224C4F1A4
:101260000703251D042B28BF0423062D4FF001057D
:1012700005FA03F303F1FF338CBF033C002419404C
:10128000A14005FA04F4013C2240002842EA010290
:101290004FEA0212ADBF00F1604000F00F00064BB4
:1012A00000F56140B5BFD2B2D2B21A5480F8002323
:1012B00030BD00BF00ED00E014ED00E0002808DBC9
:1012C0004209012300F01F0003FA00F0014B43F82C
:1012D0002200704700E100E00138B0F1807F0AD2BF
:1012E000064B074A5860F02182F82310002007229D
:1012F00098601A6070470120704700BF10E000E05E
:1013000000ED00E00368DAB223F47F7323F00303F7
:101310001821103AB2FBF1F20449032A88BF0433C2
:10132000895C8365C165806D704700BFA8C80008EF
:1013300070B50446FFF726FE0546002C71D0002349
:1013400084F834302268022384F83530136823F09F
:101350000103136021680B68D8073CD40B68324D39
:101360006268A0691D40A3681343E26813432269C1
:10137000134362691343E26903431343226A13432D
:10138000626A042A43EA050301BF266BE56A354316
:101390002B430B604B69042A23F0070343EA020343
:1013A0000BD1A26AE56A13433DB1F8B9012A2DD0E9
:1013B00001D3022A01D1EA012BD44B612046FFF769
:1013C000A1FFE26D3F23934083600020012360650D
:1013D00084F8353070BDFFF7D5FD401B0528B9D91D
:1013E00020236365032084F8350070BDB0F5005FED
:1013F00013D1032AE1D801A050F822F013140008F9
:10140000B7130008131400080D140008B5F1C07FCD
:10141000D3D1402363650120E5E7022AF9D9032AE5
:10142000C8E7012070BD00BF3F8010F070B590F894
:101430003440012C36D0012480F8344090F83540F7
:10144000866D012C4FF000054FF0020428D180F882
:10145000354004684565256825F48025256063606E
:101460008368402B0EBFA260A160E260C26D08BF1E
:10147000E1603F239340B360236843F01603236089
:10148000636943F080036361036C1BB1236843F01D
:1014900008032360236843F001032360002070BD2C
:1014A00080F83450022070BD90F83530022B03D004
:1014B00080234365012070470268052380F835309A
:1014C000136823F00103136000207047F7B5002371
:1014D00001935A4B856D1F68C36D2E6808229A4090
:1014E000164204460CD001680868400708D5086811
:1014F00020F004000860AA60626D42F0010262659B
:1015000001229A40164208D021684969090641BF64
:10151000AA60626D42F00202626504229A4016429D
:1015200008D021680968880741BFAA60626D42F04F
:101530000402626510229A40164210D0236819688E
:1015400009070CD5AA601A68500335D51B68190322
:1015500001D4236C00E0A36C0BB120469847E16DE9
:1015600020228A40164238D023681868C60634D52F
:10157000AA6094F83520052A1A6825D122F01602AF
:101580001A605A6922F080025A61226C0AB9A26C70
:101590001AB11A6822F008021A603F238B40AB6030
:1015A000002384F83430012384F83530236D0BB1E7
:1015B0002046984703B0F0BD1A68D2055EBF1A688E
:1015C00022F008021A60C4E7500328D51B681903EB
:1015D00032D4636C0BB120469847636D002BE9D081
:1015E000636DDA0719D50523226884F8353013684E
:1015F00023F0010313604FF41653B7FBF3F7019B7D
:1016000001339F42019302D31368DB07F7D4002311
:1016100084F83430012384F83530E36CC7E71A6866
:1016200012F4807208D1196821F0100119600123A9
:1016300084F8342084F83530E36BCBE710000020C9
:1016400090F83500704700002DE9F04F85B00B6829
:10165000DFF8AC81684ADFF8AC91019300234FF0CA
:10166000010E019C0EFA03FE0EEA0406B64540F098
:10167000AE804C6824F01007022F16D14FEAD30A2F
:1016800000EB8A0A03F0070BDAF820504FEA8B0BC5
:101690004FF00F0C0CFA0BFC25EA0C0C0D6905FA47
:1016A0000BF545EA0C05CAF820504FEA430A03251A
:1016B000D0F800B005FA0AF5ED4304F0030C0BEA8C
:1016C000050B0CFA0AFC013F4CEA0B0C012FC0F889
:1016D00000C011D8876807EA050BCF6807FA0AFC33
:1016E0004CEA0B078760476827EA0E0EC4F3001721
:1016F0009F4047EA0E074760C7683D408F6807FA7A
:101700000AF73D43C560E50061D54FF0000BCDF809
:101710000CB0D8F84470394D47F48047C8F844708D
:10172000D8F8447007F480470397039F23F003071A
:1017300007F1804707F59C3703F0030CD7F808A0A2
:101740004FEA8C0C4FF00F0E0EFA0CFEA8422AEA5C
:101750000E0E43D005F58065A84241D005F58065A1
:10176000A8423FD005F58065A8423DD005F58065CB
:10177000A8423BD048453BD005F50065A84239D08A
:1017800005F58065A84214BF0825072505FA0CF564
:1017900045EA0E05BD601568F74314F4803F0CBFA1
:1017A0003D4035431560556814F4003F0CBF3D4083
:1017B00035435560956814F4801F0CBF3D40354398
:1017C0009560D568A40254BF3D403543D5600133D0
:1017D000102B7FF444AF05B0BDE8F08F5D46D5E730
:1017E0000125D3E70225D1E70325CFE70425CDE77F
:1017F0000525CBE70625C9E7003C01400000024073
:1018000000380240001402400369194214BF01204D
:10181000002070470AB1816170470904FBE7016845
:101820004B6913F480634FF0000210D06FF48063B3
:101830004B612023026380F83D3080F83E20036C2A
:1018400080F83C2043F004030364012070471846ED
:1018500070472DE9F843044617469946C1F30748F7
:101860008EB22568B8F1010F0CBF6B69AB6936EA1F
:10187000030314BF0120002008B9BDE8F8836B6999
:101880005A0516D52B6843F400732B606FF4806300
:101890006B6120220023236384F83D2084F83E30CE
:1018A000226C42F00402226484F83C300120BDE83E
:1018B000F8837B1CD5D0FFF765FBA0EB09008742BE
:1018C00001D3002FCDD100232022236384F83D20B3
:1018D00084F83E30226C42F02002E4E770B5044602
:1018E0000D46164623685B695B0701D5002070BD75
:1018F0002046FFF794FFA8B96A1CF3D0FFF742FB1C
:10190000801B854201D3002DECD1002320222363CC
:1019100084F83D2084F83E30226C84F83C3042F05C
:1019200020022264012070BD70B504460D461646A3
:101930002068436913F0400301D0002070BD426964
:10194000D2060ED56FF0100242612022236384F884
:101950003D2084F83E30226C226484F83C30012023
:1019600070BDFFF70FFB801BA84201D8002DDFD10F
:1019700000232022236384F83D2084F83E30226C2B
:1019800042F02002E8E72DE9F843089E044690461D
:101990001F46C1F307498DB22368B9F1010F0CBF8F
:1019A0005B699B6935EA03030CBF012300234345B0
:1019B00002D00020BDE8F8837B1CEDD0FFF7E2FAEF
:1019C000801B874201D3002FE6D10023202223630E
:1019D00084F83D2084F83E30226C84F83C3042F09C
:1019E000200222640120BDE8F88370B504460D464C
:1019F000164623685B691B0601D5002070BD204692
:101A0000FFF70DFFA8B96A1CF3D0FFF7BBFA801BE4
:101A1000854201D3002DECD100232022236384F8DA
:101A20003D2084F83E30226C84F83C3042F02002A5
:101A30002264012070BD00002DE9FF4115460268B7
:101A40000B9E9846136843F4807313600F4600960C
:101A50000A9B00224FF001110446FFF794FF18B1D2
:101A6000012004B0BDE8F08123680A9A184907F004
:101A7000FE071F6120463346FFF7EBFE0028EFD13B
:101A8000236803905A6903929B69039332460A992B
:101A9000039B2046FFF7A9FF40B1236C042B01BF35
:101AA0002268136843F400731360D9E7B8F1010F9B
:101AB000236802D1EDB21D61D3E72A0A1A610A999F
:101AC00032462046FFF791FF0028E6D12368F1E770
:101AD000020001002DE9FF41984603680B9D164660
:101AE0001A6842F480621A601A6842F480721A60BE
:101AF0000F4600950A9B00224FF001110446FFF7A4
:101B000042FF18B1012004B0BDE8F08123682B49E1
:101B1000FFB207F0FE021A6120462B460A9AFFF731
:101B200098FE0028EED1236803905A6903929B69BE
:101B300003932A460A99039B2046FFF756FF40B1BC
:101B4000236C042B01BF2268136843F400731360F5
:101B5000D8E7B8F1010F236825D1F6B21E612A46F5
:101B60000A992046FFF741FF02460028E8D1216884
:101B70000B6843F480730B60204600950A9B4FF07E
:101B80000111FFF700FF0028BCD123680A9A0B4916
:101B900047F001071F6120462B46FFF75AFE003031
:101BA00018BF0120AFE7320A1A610A992A46204677
:101BB000FFF71BFF0028C3D12368CEE70200010016
:101BC00070B5044608B9012070BD90F83D3003F0AF
:101BD000FF021BB980F83C2008F0FCF9226824239E
:101BE00084F83D30136823F00103136001F08AFB91
:101BF0006568414B9D424DD8404B9842E3D92268DD
:101C00003F495368B0FBF1F123F03F030B435360AE
:101C1000136A23F03F03013119431162D169364B36
:101C200021F44F419D4221F0FF0100F1FF3048D8DF
:101C30006D00B0FBF5F00130C0F30B03042B38BF8F
:101C400004230B43D3611168206AE36921F0C001CA
:101C500003430B4313609168E068236921F4034157
:101C6000034321F0FF010B439360D168A0696369CE
:101C700021F0FF0103430B43D360136843F00103DA
:101C8000136000202023206484F83D30206384F812
:101C90003E0070BD1B4B984295D92268184E536880
:101CA000B0FBF6F623F03F0333435360136A4FF45F
:101CB0009671714323F03F034FF47A76B1FBF6F14E
:101CC000A9E7A36853B905EB4503B0FBF3F0431C48
:101CD000C3F30B036BB143F40043B2E719236B4327
:101CE000B0FBF3F0431CC3F30B0313B143F44043C5
:101CF000A7E70123A5E700BFA08601007F841E009F
:101D000040420F00FF083D002DE9FF4104461F46F9
:101D10000D469046FFF736F994F83D30202B0646E5
:101D200004D00225284604B0BDE8F08100901923B4
:101D3000012258492046FFF726FE0028F1D194F8E9
:101D40003C30012BEDD0012384F83C3023681A6825
:101D5000D2075EBF1A6842F001021A601A6822F4C4
:101D600000621A60212284F83D20102284F83E206F
:101D7000002222646785628D2285474AE262E26A18
:101D8000C4F82480082A04D0012A02D012F5803F2A
:101D900004D11A6842F480721A6002E0226B122A9F
:101DA000F7D000960A9B00224FF001112046FFF762
:101DB000EAFD08B10125B5E723692268B3F5804F34
:101DC00013D105F0FE05156133460A9A33492046C2
:101DD000FFF73FFD05460028ECD1236803905A69C0
:101DE00003929B690393039B44E0EB1103F006030A
:101DF00043F0F00313612A490A9A33462046FFF75D
:101E000028FD0028D6D12368EDB21D61DCE73246FB
:101E10000A992046FFF7E9FD40B1236C042B01BF6E
:101E20002268136843F400731360C3E7636A206891
:101E30001A4612F8011B01616262628D013A92B288
:101E40006285228D4769511E89B27F0721850AD597
:101E500049B15978016102336362638D013B9BB2E2
:101E6000023A6385228532460A992046FFF736FDFD
:101E70000028D2D1238D002BC9D121680A6842F4F1
:101E800000720A60202284F83D2084F83C3084F8F7
:101E90003E3047E7020010000000FFFF0200010093
:101EA000080001002DE9F743044699460F46904685
:101EB0000C9EFFF767F894F83D30202B054603D0C1
:101EC000022003B0BDE8F0830090192301223B49B2
:101ED0002046FFF758FD0028F2D194F83C30012B42
:101EE000EED0012384F83C3023681A68D1075EBF26
:101EF0001A6842F001021A601A6822F400621A603D
:101F0000212384F83D30402384F83E3000232364AD
:101F10000A9B6362BDF82C306385638D2385284B53
:101F2000E362019500964B46424639462046FFF74C
:101F300083FD00282AD00120C3E7FFF756FD40B1FA
:101F4000236C042B01BF2268136843F400731360F1
:101F5000F1E7636A27681A4612F8011B3961626269
:101F6000628D218D013A92B262857A69481E80B2F3
:101F7000520720850AD548B15A783A610233636224
:101F8000638D013B02399BB221856385238D2A46EF
:101F900031462046002BD0D1FFF7A0FC0028CFD13E
:101FA0002268136843F400731360202384F83D30E3
:101FB00084F83C0084F83E0083E700BF0200100074
:101FC0000000FFFF2DE9F043044687B099460D4617
:101FD0009046109FFEF7D6FF94F83D30202B064622
:101FE00004D00225284607B0BDE8F08300901923ED
:101FF000012277492046FFF7C6FC0028F1D194F86A
:102000003C30012BEDD0012384F83C3023681A6862
:10201000D0075EBF1A6842F001021A601A6822F403
:1020200000621A60222384F83D30402384F83E3059
:10203000002323640E9B6362BDF83C306385638D8F
:102040002385644BE3622946019600974B4642463E
:102050002046FFF73FFD054608B10125C2E7228D66
:10206000236892B902905A6902929A690292029A7E
:102070001A6842F400721A60202384F83D3000236D
:1020800084F83E3084F83C30ACE7012A2CD11A6841
:1020900022F480621A6003905A6903929A6903924B
:1020A000039A1A6842F400721A60DFF82C81238DBB
:1020B000002BE1D0032B6ED8012B2DD132463946AF
:1020C0002046FFF731FC0028C7D12268636A1269F5
:1020D0001A70636A01336362238D013B2385638D2C
:1020E000013B9BB26385E2E7022A0ED11A6822F413
:1020F00080621A601A6842F400621A6004905A6999
:1021000004929B690493049BCFE705905A6905925A
:102110009B690593059BC8E7022B00963B464FF051
:1021200000024146204619D1FFF72DFC002894D12A
:1021300023681A6842F400721A60626A1B6913709D
:10214000626A531C6362238D013B2385638D013BCF
:102150009BB2638523681B695370BAE7FFF713FCD2
:10216000024600287FF479AF2368196821F4806162
:102170001960616A1B690B70636A009601336362C0
:10218000238D013B2385638D013B9BB263854146D3
:102190003B462046C8E7324639462046FFF7C4FB97
:1021A00000287FF45AAF2268636A12691A70626A63
:1021B000531C6362238D013B2385638D013B9BB2DE
:1021C00063852368596949077FF571AFC3E700BF8D
:1021D000020010000000FFFF040001002DE9F04F95
:1021E000044685B0984689469246FEF7CBFE94F8A1
:1021F0003D30202B054603D0022005B0BDE8F08F0E
:1022000000901923012248492046FFF7BCFB002813
:10221000F2D194F83C30012BEED0012384F83C300D
:102220002368DFF804B11A68D2075EBF1A6842F06B
:1022300001021A601A6822F400621A60242384F8EA
:102240003D3000232364A3F58033E362012709F0C6
:10225000FE092268136843F4807313604FF0011184
:102260000095434600222046FFF78DFB08B1012070
:10227000C3E72368C3F81090FEF784FE23685A6909
:102280005B690546C2F34002C3F38023A02694F89D
:102290003D10A02901D002B903B32368202684F899
:1022A0003D605A6912F0020F1A6842F400721A6017
:1022B00026D0002203925A6903929B690393039BE1
:1022C00000951923012218492046FFF75CFB0028DE
:1022D000CDD184F83D6084F83C008EE7FEF752FED5
:1022E000401B804502D3B8F1000F01D184F83D6056
:1022F00023685A695B69C2F34002C3F38023C6E7CF
:102300006FF480625A6159460095192301222046D4
:10231000FFF739FB0028AAD10137574599D384F834
:102320003D6084F83C00A2E702001000704770474F
:1023300070477047704770477047704770477047E5
:10234000806B026890F83D1070B51468466B856B21
:10235000002324F48064F363EB6314604385146802
:10236000336524F001042B65146090F83D40602C27
:10237000C9B208D1202280F83D2080F83E300364A5
:10238000FFF7DDFF70BD01F0280128290DD1146889
:1023900044F001041460146844F48064146003631E
:1023A00080F83D10FFF7CAFF70BD202280F83D2065
:1023B00080F83E30F6E7000090F83D2090F83E307F
:1023C000102B10B5D2B20446036805D1222A02BFF1
:1023D000196821F40061196002F0280128293AD116
:1023E0000022226384F83D105A6812F4006259D02A
:1023F0005A68606B22F400625A6090F83530012B05
:102400003C4B35D00365FFF74FF850B12268606B45
:10241000136823F001031360202384F83D30036D1B
:10242000984794F83D30226C5207DBB212D5282B26
:1024300010D12268536823F4E06353602E4BE362AB
:10244000202200232363204684F83D2084F83E3078
:10245000FFF771FF10BD5968090504D4602A1CBF3D
:10246000202284F83D200022226384F83E20BBE72E
:10247000A06B0365FFF718F80028D2D023685A69CB
:10248000520605D5626A1B691370636A0133636281
:102490002268A06B136823F001031360202384F8E3
:1024A0003D30BCE794F83D10602915D1202184F817
:1024B0003D1022645A69500605D5626A1B69137083
:1024C000636A013363622268136823F001031360B7
:1024D0002046FFF734FFA4E75A69510605D5626A22
:1024E0001B691370636A013363622046FFF726FF9E
:1024F00097E700BF412300080000FFFF036830B5E5
:102500005A68C56A90F83E100446C9B290F83D007A
:1025100010298DB0C0B202D0402940F0B68298692F
:10252000596911F0010F07D1B5F52A0F02D0B5F1A5
:102530002A4F52D10DB030BD95054ED5E26AB2F5A5
:102540002A0F0CD10122E26294F83E20402A11D1D8
:10255000226D52B9626C02F0FE021A61EAE7E26A89
:10256000B2F12A4FF0D10822EDE7626C42F001028D
:10257000D2B2F2E72269B2F5804F1BD194F83D2028
:10258000212A626C12D102F0FE021A61626B12B94A
:10259000A16B0029CED0D26B1AB9A26BD26B002AE4
:1025A000C8D05A6842F400625A60C3E742F00102A0
:1025B000D2B2EAE7226D32B9626CD21102F00602A1
:1025C00042F0F002C9E7226D012AB3D1626CD21148
:1025D00002F0060242F0F102BFE70D0703D59505B0
:1025E00001D5626CE4E78D0740F1E180950540F18B
:1025F000DE8094F83E10E26A256B94F83D002228B4
:10260000C9B240F0CC80206D40B9402906D101907C
:102610005A6901929B690193019B8BE7216D81B9F6
:102620002069B0F5404F0CD102915A6902929A6923
:102630000292029A1A6842F480721A60236D013382
:1026400028E0618D89B251B903915A6903929A6960
:102650000392039A1A6842F400721A6019E0618DBD
:1026600089B201294AD112F5803F1CD11A6822F49F
:1026700080621A605A6812F400620DD01A6822F45F
:1026800080621A60002204925A6904929B69049342
:10269000049B002323654DE705925A6905929A69C8
:1026A0000592059AD6E7082A1CD0202A1AD0122DA6
:1026B0000DD1012A16D11A6822F480621A60002214
:1026C00006925A6906929B690693069BE1E7102AD7
:1026D000F1D88E4921FA02F2D007ECD51A6842F4FB
:1026E0008062EBE71A6822F480621A600022079287
:1026F0005A6907929A690792079AABE7618D89B286
:1027000002292CD1102A03D88049D140C90722D4EC
:10271000196821F480611960196841F40061196039
:1027200059680D050FD512F5803F08D0511E1F299D
:102730009DBF774ACA40D2430122D00703D45A68CA
:1027400042F480525A60002208925A6908929B69AA
:102750000893089B9DE7196841F48061DFE71968D9
:1027600041F4806119605968090510D512F5803F60
:1027700009D0013A1F2A9DBF654921FA02F2D243CE
:102780000122D20703D45A6842F480525A600022D0
:1027900009925A6909929B690993099B79E700227A
:1027A0000A925A690A929B690A930A9BC2E610F040
:1027B000040F586800F0AE8005053FF5BBAE11F080
:1027C000800F01F0040169D0500567D5002965D15B
:1027D00094F83D20258D94F83E10E06AD2B2C9B23B
:1027E000C5B9212A18D1082878D0202876D010F52C
:1027F000803F73D05A6822F4E0625A601123236349
:10280000002384F83E30202384F83D302046FFF733
:102810008DFD8FE6212A05D040297FF48BAE222A38
:102820007FF488AE628D92B21AB95A6822F480623F
:10283000BAE694F83E20402A26D1226D62B9E26CB5
:10284000012AA26C04D1D2B21A61236D023321E7AE
:10285000C2F307221A61F1E6226D012A02D1A26CAD
:10286000D2B2F7E7226D022A7FF464AE94F83D20DD
:10287000222A04D11A6842F480721A605AE694F847
:102880003D20212A7FF456AE626A12F8011B1961BD
:102890006262638D013B9BB263854BE600293FF486
:1028A00049AE92057FF546AEE16A94F83D20212AB3
:1028B0007FF440AE628D92B2002AE5D108290DD096
:1028C00020290BD011F5803F08D0596821F4E06130
:1028D00059601123236384F83E2094E75A6822F458
:1028E000E0625A601A6842F400721A6000232022E3
:1028F000236384F83D2094F83E2084F83E30402A3B
:10290000204684D1FFF718FD14E600BF1400010033
:102910008180008005053FF50DAE11F0400F01F0FC
:10292000040148D0500546D5002944D194F83D20F3
:10293000222A7FF4FFAD628D92B2032A14D9626A13
:102940001B691370636A01336362638D013B9BB241
:102950006385638D9BB2032B7FF4ECAD22685368D3
:1029600023F480635360E5E5E06A02283FF4E2ADBA
:10297000012A3FF6DFAD1A6822F480621A605A68B5
:1029800022F4E0625A60626A1B691370636A013361
:102990006362638D013B9BB26385202384F83D30E5
:1029A00094F83E3084F83E10402B68D121632046D5
:1029B000FFF7C3FCBEE500293FF4BCAD92057FF5EF
:1029C000B9ADE26A618D89B20429616A09D15A6898
:1029D00022F480625A601B690B70636A0133636280
:1029E00057E7608D80B203280CD15868042A20F480
:1029F00080605860EFD0022AEDD01A6822F480621D
:102A00001A60E8E7608D80B20228E4D1012A01D083
:102A1000102A28D11A6822F480621A601B690B7090
:102A2000626A531C6362638D013B9BB263852368BA
:102A30001B695370636A226801336362638D013BD3
:102A40009BB26385536823F440735360202384F85A
:102A50003D3094F83E30402B4FF0000384F83E3078
:102A60000DD12363A3E7042A01D0022A03D11A68F7
:102A700042F48062D1E71A6842F40072CDE7122373
:102A800023632046FFF753FC54E5216C21B35969B9
:102A9000002511F0020F29D012F4007F26D0226CFD
:102AA00002B19D6994F83D2002F02802282A16D12F
:102AB0005A6822F480625A6085F004012B064FF0B8
:102AC0000003C1F3800154BFA289228B84F83C30FB
:102AD0002046FFF72FFC2DE59D695969D9E76FF076
:102AE00002025A61002384F83C3023E5CD0640F110
:102AF000AF80950540F1AC8094F83D505A6822F4BF
:102B0000E0625A6000220B925A690B921A6842F0F6
:102B100001021A600B9A1A6822F480621A605A68DD
:102B20001105EDB220D505F0F702222A48D1A06B9D
:102B30000268526892B26285628D92B21AB1226CBA
:102B400042F0040222645A6822F400625A60FEF7DE
:102B500077FD012808D0A06B784B0365FEF7A4FC35
:102B600010B1A06B036D9847638D9BB213B32368BC
:102B70005A69520709D5626A1B691370636A013387
:102B80006362638D013B9BB2638523685A6950067B
:102B900009D5626A1B691370636A01336362638DCE
:102BA000013B9BB26385638D9BB21BB1236C43F0E9
:102BB00004032364236C03B32046FFF7FDFBB9E451
:102BC000606B0268526892B26285628D92B21AB1ED
:102BD000226C42F0040222645A6822F400625A60B5
:102BE000FEF72EFD0128BFD0606B544B0365FEF746
:102BF0005BFC0028B8D0606BB4E72A2D06D12363B4
:102C0000282384F83D302046FFF793FB94F83D30AD
:102C1000282B0CD14A4BE362202200232363204659
:102C200084F83D2084F83E30FFF785FB82E4236B77
:102C3000222B02D0222D7FF47DAC0023202223639F
:102C400084F83D2084F83E302046FFF772FB71E4A3
:102C500000F0F700212801F0040535D1090627D539
:102C6000510525D525BB94F83D10628D92B2C9B2AD
:102C7000002A3FF45FAC626A12F8015B1D61626278
:102C8000628D013A92B26285628D92B2002A7FF41F
:102C900051AC29297FF44EAC5A6822F480625A6004
:102CA0002823206384F83D302046FFF741FB41E4B0
:102CB000002D3FF43FAC95057FF53CAC628D92B2A0
:102CC000002A7FF4E1AD35E4480627D5510525D526
:102CD00025BB94F83D20618D89B2D2B200293FF422
:102CE00029AC616A1B690B70636A01336362638D8F
:102CF000013B9BB26385638D9BB2002B7FF41AACC2
:102D00002A2A7FF417AC2268536823F48063536047
:102D100022232363282384F83D3095E7002D3FF4D8
:102D200009AC92057FF506AC628D92B2002A3FF4A1
:102D300001AC626A1B6913704FE600BF41230008B3
:102D40000000FFFFF8B503685F695E6817F48075DF
:102D5000044606D016F480751EBF6FF480725A6167
:102D60000125B90506D5F20542BF6FF4007245F0A2
:102D700002055A61780537D5F10535D594F83EE05E
:102D8000618D94F83D20206BBEF1200F89B2D2B244
:102D90005AD1002958D102F0F701212903D0282A5D
:102DA00052D1212850D194F83D20E16A0829D2B2AD
:102DB00001D020292AD1282A28D12C4AE2625A6837
:102DC00022F4E0625A606FF480625A611A6822F459
:102DD00080621A60002320222363204684F83D206D
:102DE00084F83E30FFF7A7FA3A053CD5F3053AD50B
:102DF00023686FF4006245F008055A61236C1D4397
:102E000025642046BDE8F840FFF7D6BA212A17D13D
:102E10001649E1622263202284F83D20002284F8D2
:102E20003E205A6822F4E0625A606FF480625A6170
:102E30001A6822F480621A602046FFF779FAD3E715
:102E40006FF480625A61CFE76FF480625A6194F840
:102E50003E20102A04BF1A6842F4007245F00405AF
:102E600008BF1A60C0E7002DC8D1F8BD0000FFFF01
:102E70002DE9F341044618B9012002B0BDE8F08104
:102E80000368DD0710D42368980758D423681A070D
:102E900000F19A8023685B0700F1B880A269002ADC
:102EA00040F019810020E8E7A64B9A6802F00C0276
:102EB000042A07D09A6802F00C02082A0AD15B683B
:102EC000590207D59F4B1B689A03DCD56368002B1A
:102ED000D9D1D1E763689B4DB3F5803F11D12B6801
:102EE00043F480332B60FEF74DF8964D06462B6871
:102EF0009B03C8D4FEF746F8801B6428F7D903204B
:102F0000BBE7B3F5A02F04D12B6843F480232B60DB
:102F1000E5E72A6822F480322A602A6822F48022B7
:102F20002A60002BDFD1FEF72DF806462B689F03A1
:102F3000A9D5FEF727F8801B6428F7D9DFE7814B76
:102F40009A6812F00C0F07D09A6802F00C02082A57
:102F500011D15B685E020ED47A4B1A68950702D5D0
:102F6000E268012A88D11A68216922F0F80242EA4F
:102F7000C1021A608AE7E268734BB2B101221A609B
:102F8000FEF700F86F4D06462B68980707D52B68AB
:102F9000226923F0F80343EAC2032B6076E7FDF7CA
:102FA000F1FF801B0228EFD9A9E71A60FDF7EAFFBD
:102FB000644D06462B6899077FF568AFFDF7E2FF81
:102FC000801B0228F6D99AE76269604B7AB1012228
:102FD0001A60FDF7D7FF5B4D06466B6F9F073FF505
:102FE00059AFFDF7CFFF801B0228F6D987E71A609B
:102FF000FDF7C8FF534D06466B6F98077FF54AAF44
:10300000FDF7C0FF801B0228F6D978E74D4B1A6CFC
:1030100012F0805228D101921A6C42F080521A6448
:103020001B6C03F080530193019B0126484D2B68D4
:10303000D9051BD5A368434D012B27D12B6F43F036
:1030400001032B67FDF79EFF3E4D074641F288388E
:103050002B6F9B0739D5002E3FF420AF394A136CF4
:1030600023F08053136419E70026DFE72B6843F44D
:1030700080732B60FDF786FF07462B68DA05D9D4ED
:10308000FDF780FFC01B0228F7D938E7052B04D1D4
:103090002B6F43F004032B67D0E72A6F22F0010265
:1030A0002A672A6F22F004022A67002BCAD1FDF793
:1030B00069FF41F2883807462B6F9807CBD5FDF79B
:1030C00061FFC01B4045F7D919E7FDF75BFFC01B47
:1030D0004045BDD913E71B4DAB6803F00C03082B2B
:1030E0003FF4CAAE1B4E0023022A336034D1FDF7F1
:1030F00049FF07462B6899011ED4226AE3691343EE
:10310000626A43EA8213E26A43EA0263A26A0D4CEE
:103110005208013A43EA02436B6001233360FDF732
:1031200031FF054623689A013FF5BCAEFDF72AFF43
:10313000401B0228F6D9E2E6FDF724FFC01B022857
:10314000D8D9DCE60038024000004742800E4742F2
:103150000070004060004742FDF714FF04462B68F2
:103160009B017FF59FAEFDF70DFF001B0228F6D9EE
:10317000C5E600BF134908B58B6803F00C03042BA8
:1031800003D0082B03D0104808BD104808BD4A687A
:103190004B68496813F4800314BF0C480A48C1F314
:1031A000881118BF002302F03F02A1FB0001FDF7C8
:1031B00017FD044B5B68C3F3014301335B00B0FBB5
:1031C000F3F008BD003802400024F40000127A0039
:1031D0002DE9F0410D46044610B90120BDE8F0810B
:1031E000444B1A6802F00F028A4228D321688F07E5
:1031F0002DD4C80740D43F4B1A6802F00F02954205
:1032000066D3226851076CD4130707D53A4A21695F
:10321000936823F4604343EAC1039360FFF7AAFF76
:10322000354B364A9B68C3F30313D35CD840344B09
:1032300018600F20FDF75CFE0020BDE8F081CAB2E7
:103240001A701B6803F00F039942C6D1CEE72A4BD0
:1032500011F0040F1EBF9A6842F4E0529A600E0704
:1032600042BF9A6842F460429A609A68A06822F06D
:10327000F00202439A60BCE762681F4B012A1DD12D
:103280001B6813F4003FA8D01B4EB36823F0030360
:103290001343B360FDF776FE41F288380746B36802
:1032A000626803F00C03B3EB820FA4D0FDF76AFE53
:1032B000C01B4045F3D90320BDE8F081911E0129D0
:1032C0001B6802D813F0007FDDE713F0020FDAE786
:1032D000EAB21A701B6803F00F039D427FF47DAFC2
:1032E0008FE70549E0688B6823F4E05303438B6064
:1032F0008AE700BF003C0240003802402CCE0008A4
:1033000010000020044B054A9B68C3F38223D35C62
:10331000034A1068D8407047003802403CCE00088D
:1033200010000020044B054A9B68C3F34233D35C72
:10333000034A1068D8407047003802403CCE00086D
:1033400010000020836B1A68D36B43F48073D3633F
:10335000704700002DE9F041054686B016461F462D
:1033600039B9836B43F00063AB63012006B0BDE85D
:10337000F08190F83400C4B2012C6DD1E86DF318DF
:1033800000228342AA6303D9AB6B43F00073EBE7DF
:10339000D5F800E0E86B032385F83430CEF82C2014
:1033A000DEF83C3043F44A7343F00203CEF83C307D
:1033B0002A4BC3634FEA4728294BC36402654FEA8F
:1033C00098030A460EF18001FEF730F8254B286875
:1033D0001C606B6C012B4FF0FF338DE808014FF040
:1033E000900302934FF00203039369464FF00003EA
:1033F0004FF0010418BF76020493059400F0D4FF47
:103400004FF40071286800F0E2FF48B12B6840F2E9
:10341000FF529A63AB6B1843A86385F83440A4E766
:10342000012F12D982232B633146286800F0FFFF59
:1034300000289BD02B6840F2FF529A63AB6B184375
:10344000A863012085F8340090E781232B6331467F
:10345000286800F0D4FFEBE7022087E76F3500080B
:10346000C53900088C8525422DE9F041044686B017
:1034700015461E460F4639B9836B43F000638363DC
:10348000012006B0BDE8F08190F83400C0B20128F8
:1034900064D1E16DEB1800228B42A26304D9A36BC7
:1034A00043F00073A363ECE720682D49032384F8FD
:1034B0003430C262C36B43F4067343F00203C36348
:1034C000236CD9632749D9641A65636C4FF4007182
:1034D000012B18BF6D0200F07AFF50B1236840F253
:1034E000FF529A63A36B1843A063012084F8340051
:1034F000C7E7012E0FD9A02323632946206800F0D7
:10350000C6FF0546226868B140F2FF539363A06B83
:103510000543A563E9E7902323632946206800F06B
:103520009EFFEEE7104B206C4FF001087602C3F8C7
:1035300000808032B3083946FDF778FF4FF0FF3343
:103540008DE848006946902320680293039504950E
:10355000CDF8148000F028FF284692E7022090E77B
:1035600045330008C53900088C852542704710B5E1
:10357000846B236B822B09D1206800F0A1FF28B156
:10358000A36B1843A0632046FFF7F0FF2368DA6AB5
:1035900022F00802DA6240F2FF529A63012384F8B3
:1035A0003430204604F075FB10BD436E9A0F0A704C
:1035B000C3F383624A70C3F301628A70C3F30742A4
:1035C000CA70C3F30722DBB20A714B71836E1A0E05
:1035D0001201CA80CA8830B592B2C3F303542243A1
:1035E000CA80C3F303420A72C3F30722D4094C72A0
:1035F000C2F380148C72C2F34014CC72C2F3001474
:103600000C7300244C73446C002C40F083809202B5
:1036100002F440620A610A699B0003F47F7313435A
:103620000B61C26E0B6943EA92730B61C2F3C26312
:103630000B75C2F302634B75C2F342538B75C2F331
:103640008243CB75D30B03F006030B760C7EC2F3DB
:103650000723C2F3C03222430A760A690C7E013284
:103660000234A24042650D7A0124AC408465640AAC
:103670006243C2654FF400720266C3F380125B00BE
:1036800003F07E034A768B76C36E8A7EC3F3C01442
:10369000224303F07F038A76CB76036FDA0F0A7733
:1036A000C3F341724A77C3F382628A779A0D02F0BC
:1036B0000C02CA77CA7FC3F381500243CA77C3F3AF
:1036C000405281F820200020C3F3004281F82100FD
:1036D00081F82220C3F3C03281F82320C3F3803263
:1036E00081F82420C3F3403281F82520C3F300324F
:1036F00081F82620C3F3812281F82720C3F3012219
:10370000C3F3460381F8282081F82930012381F88A
:103710002A3030BD012C1AD11B0403F47C130B6139
:10372000C36E0A691C0E42EA04220A610C69C3F3E3
:10373000074222430A610A69920202F580624265E9
:10374000C2654FF40072C3F30723826594E70368F0
:1037500040F2FF529A63836B43F0805383630123EB
:1037600080F83430184630BDF0B599B00025762386
:103770000C930A950B950AAB044693E807008DE875
:1037800007006F4E07950895099507AB0ECB20688B
:1037900000F030FD01273560206800F04FFD3760F4
:1037A0000220FDF7F5FB2068069500F0BBFE0646FB
:1037B00068B9206800F0DEFE80B3A6644FF6FF759E
:1037C000069B5A1CAB42069208D14FF0807601202E
:1037D00084F83400A16B0E43A66381E000212068C9
:1037E00000F000FF014610B14FF08056EFE720686F
:1037F00000F010FF01460028F6D1206800F039FDE6
:103800000028DDDA0023636420680123ADF8163058
:1038100000F018FD10BB4FF080656BE0A7644FF619
:10382000FF75069B5A1CAB420692CED00021206841
:1038300000F0D8FE06460028C9D14FF0804120682C
:1038400000F0E8FE06460028C1D10146206800F0DD
:1038500010FDC30FE5D04200D4D5D4E7636C032B31
:103860001AD0206800F0EFFE0546002842D101463C
:10387000206800F0FEFC04216067206800F0F9FC7D
:103880000821A067206800F0F4FC0C21E0672068A4
:1038900000F0EFFCC4F88000636C032B22D1636C52
:1038A000032B2ED10421206800F0E3FC000DE0641E
:1038B0000DA92046FFF779FE226D2068120400232F
:1038C00000F018FE0546A8B904F1100393E80700BC
:1038D0008DE80700231D0ECB206800F08BFC2846E6
:1038E00019B0F0BD0DF11601206800F0D7FE0546B5
:1038F0000028D4D0012084F83400A36B1D43A563B5
:10390000EEE7BDF8161021652068090400F0B0FE4E
:1039100005460028EED10146206800F0AAFC0421EB
:103920006066206800F0A5FC0821A066206800F011
:10393000A0FC0C21E066206800F09BFC2067B1E74A
:10394000A080254210B50446A0B190F8343003F0B1
:10395000FF0213B9027706F0C1FB032384F8343069
:103960002046FFF701FF00200123A063206384F8B5
:10397000343010BD012010BD436C0B60836C4B6074
:10398000C36C8B60036DCB60436D0B61836D4B61CA
:10399000C36D8B61036ECB6100207047016D10B564
:1039A00009040446006800F0CDFE014628B92068ED
:1039B00000F05FFCC0F3432010BDA36B1943A1636B
:1039C0000020F7E710B5846BE36B5B6D012B03D030
:1039D000236C5B6D012B1BD1236840F2FF529A636D
:1039E000DA6B22F49D72DA63A36B43F08043A36326
:1039F0002046FFF7D3FF0538C0B2012805D820685C
:103A000000F05EFDA36B1843A063012384F83430FB
:103A10002046FFF7ABFD10BD38B5846B236C0BB1AE
:103A200000232364E56BC5B92046FFF7B7FF0538CF
:103A30000123C0B29842A56384F834300DD82068C1
:103A400000F03EFDA36B1843A063A36B204613B1A7
:103A500004F017F938BDFFF789FD38BD38B5846B20
:103A6000E36B0BB10023E363256CC5B92046FFF778
:103A700095FF05380123C0B29842A56384F834301D
:103A80000DD8206800F01CFDA36B1843A063A36B46
:103A9000204613B104F0F5F838BDFFF767FD38BDD7
:103AA00070B504460068436BDA054FD54FF4807358
:103AB0008363C36B23F44E7323F00203C363236B4E
:103AC00013F0080F236B1ED09B0702D4236B9E06B6
:103AD00008D500F0F5FC28B1A36B1843A06320467D
:103AE000FFF744FD236840F2FF529A63012384F8F4
:103AF0003430236BDD07204602D4236B9C0722D58C
:103B000004F0C7F870BD190640F1A580236B9A0632
:103B100008D500F0D5FC28B1A36B1843A06320465C
:103B2000FFF724FD236BDB0700F19580236B9E07D5
:103B300000F191802268D36A23F00803D362012345
:103B400084F83430204604F0A0F870BD436B5D0467
:103B500010D5256A4FF48043836305F1200629467A
:103B60002068043500F065FBAE42F8D1236A2033AB
:103B7000236270BD436B190410D5A56A4FF400434E
:103B80002E1F83631C35206800F050FB46F8040F9D
:103B9000B542F8D1A36A2033A36270BD426B40F2F4
:103BA0003A231A4257D0436B9A0742BFA36B43F0A4
:103BB0000203A363436B1B0742BFA36B43F00803DD
:103BC000A363436B9E0642BFA36B43F02003A36332
:103BD000436BDD0642BFA36B43F01003A363436B4B
:103BE000990542BFA36B43F00803A36340F2FF7340
:103BF0008363C36B23F44E7323F00203C363236B0D
:103C00001A061FD5206C48B1134B0365FDF74CFC19
:103C100008B3206CBDE87040FFF7FEBEE06B48B112
:103C20000E4B0365FDF740FCA8B1E06BBDE87040AA
:103C3000FFF714BF0123A06384F83430204604F05A
:103C400020F870BD236B1B0705D5012384F83430A1
:103C50002046FFF78BFC70BD193A00085D3A00085A
:103C60000368DA6822F49072DA605A6922F001027D
:103C70005A61202380F83A30704700002DE9F04760
:103C80000668C2683369C16923F440531343336142
:103C9000044683680069F2680343606922F41642AF
:103CA000034322F00C020B431343F3607369A269D0
:103CB00023F440731343B1F5004F73617A4B7CD109
:103CC0009E4203D003F580639E4244D1FFF72AFB56
:103CD000192505FB00F360684FF064094000B3FB51
:103CE000F0F3B3FBF9F34FEA0318FFF71BFB63682C
:103CF00068435B00B0FBF3F7FFF714FB63686843AE
:103D00005B00B0FBF3F3B3FBF9F309FB1373DB00C8
:103D10003233B3FBF9F35B0003F4F877FFF702FBF0
:103D2000626868435200B0FBF2FAFFF7FBFA63687F
:103D300068435B00B0FBF3F3B3FBF9F309FB13A398
:103D4000DB003233B3FBF9F303F0070343443B4496
:103D5000B360BDE8F087FFF7D5FA192505FB00F33E
:103D600060684FF064094000B3FBF0F3B3FBF9F374
:103D70004FEA0318FFF7C6FA636868435B00B0FBBD
:103D8000F3F7FFF7BFFA636868435B00B0FBF3F338
:103D9000B3FBF9F309FB1373DB003233B3FBF9F325
:103DA0005B0003F4F877FFF7ADFA626868435200EE
:103DB000B0FBF2FAFFF7A6FAB9E79E4202D03B4BFE
:103DC0009E4240D1FFF7AEFA676819254FF06409AB
:103DD00005FB00F3BF00B3FBF7F3B3FBF9F31F01DF
:103DE000FFF7A0FA636868439B00B0FBF3F8FFF7A6
:103DF00099FA636868439B00B0FBF3F3B3FBF9F3F4
:103E000009FB13831B013233B3FBF9F303F0F00812
:103E1000FFF788FA626868439200B0FBF2FAFFF796
:103E200081FA636868439B00B0FBF3F3B3FBF9F3DB
:103E300009FB13A31B013233B3FBF9F303F00F03A8
:103E400043EA080383E7FFF75DFA676819254FF037
:103E5000640905FB00F3BF00B3FBF7F3B3FBF9F311
:103E60001F01FFF74FFA636868439B00B0FBF3F84C
:103E7000FFF748FA636868439B00B0FBF3F3B3FBBA
:103E8000F9F309FB13831B013233B3FBF9F303F09E
:103E9000F008FFF737FA626868439200B0FBF2FA65
:103EA000FFF730FABDE700BF0010014000140140E9
:103EB00010B5044640B390F8393003F0FF021BB947
:103EC00080F8382006F0CEF92268242384F83930AF
:103ED000D36823F40053D3602046FFF7CFFE236856
:103EE0001A6922F490421A615A6922F02A025A6130
:103EF000DA6842F40052DA6000202023E06384F89C
:103F0000393084F83A3010BD012010BD90F83930B6
:103F1000202B18D1A9B1A2B190F83830012B12D0C2
:103F2000C2840162828400230168C363212280F875
:103F30003920CA6880F8383042F08002CA601846DA
:103F40007047012070470220704790F83A30202BCC
:103F500020D1E9B1E2B190F83830012B1AD0C285F6
:103F6000828500232222C36380F83A20026881629E
:103F7000D16880F8383041F48071D160516941F0E6
:103F800001015161D16841F02001D16018467047AC
:103F9000012070470220704790F83A30222B10B56C
:103FA00036D1836801690268B3F5805F836A23D1E3
:103FB0005268E9B9C2F3080223F8022B8362C48D68
:103FC000013CA4B2C4858CB90368DA6822F02002EF
:103FD000DA60DA6822F48072DA605A6922F001024B
:103FE0005A61202380F83A3005F03CFB002010BDD8
:103FF000D2B223F8012BE1E721B9591C5268816242
:104000001A70DCE75268591C816202F07F02F7E700
:10401000022010BD7047000003681A68D96870B5A7
:10402000160704465D6907D196065AD58D0658D500
:10403000BDE87040FFF7B0BF15F0010502D111F4E3
:10404000907F4ED0D30705D5CE0542BFE36B43F03A
:104050000103E363500704D51DB1E36B43F0020392
:10406000E363930704D51DB1E36B43F00403E363FB
:10407000160704D51DB1E36B43F00803E363E36B5C
:10408000002B66D0950604D5880602D52046FFF79A
:1040900083FF23685D69E26B1107204602D415F0A7
:1040A00040051AD0FFF7DCFD23685A69520610D587
:1040B0005A69606B22F040025A6150B1254B03658A
:1040C000FDF7F2F9002844D0606BBDE87040036D45
:1040D00018472046FFF79EFF70BDFFF79BFFE56383
:1040E00070BD160627D50D0625D594F83920212A4E
:1040F0002FD1A268B2F5805F226A17D11188C1F36F
:1041000008015960216979B902322262E28C013AD0
:1041100092B2E284EAB9DA6822F08002DA60DA6800
:1041200042F04002DA6070BD0132EEE7511C2162BC
:1041300012785A60EAE750060BD54A0609D5DA68C4
:1041400022F04002DA60202384F83930204605F05E
:1041500047FA70BD5941000808B5806B0023C3853C
:10416000C384FFF757FF08BD114B4FF4FA521B6889
:10417000B3FBF2F241F28833534313F1FF3314D30C
:10418000426B12F0450FF8D0436B5B0703D5042355
:10419000836318467047436B13F0010301D001237A
:1041A000F6E740F2FF528263F3E74FF00043F0E797
:1041B000100000200E4B4FF4FA521B68B3FBF2F2D2
:1041C00041F28833534313F1FF330ED3426B12F0A5
:1041D000450FF8D0436B13F0040315BF042340F2DE
:1041E000FF5283638263184670474FF00040704768
:1041F0001000002084B010B503AC84E80E000499D0
:10420000039B42680B4305990B4306990B4307999F
:104210000B430899BDE8104022F4FD420B4322F005
:104220007F021343436004B000207047D0F8800041
:1042300070470B68C0F8803000207047032303608C
:1042400000207047006800F0030070470B6810B54D
:1042500083608C684B68C2682343CC680969234338
:1042600022F47F620B4322F00F021343C36000204D
:1042700010BD82B014300144002301930191019BD1
:10428000186802B070470000454B10B51B684FF42A
:10429000FA54B3FBF4F35A43002A4AD0436B13F0A9
:1042A000450F02F1FF32F7D0436B5C0703D50423BF
:1042B0008363184610BD436B13F0010301D0012343
:1042C000F6E70269D2B2914236D140F2FF52194666
:1042D0008263FFF7CEFF334B0340002BE9D0002869
:1042E0002CDB42002DD484002DD4C1002DD402013A
:1042F0002ED444012FD4C10130D4020231D444025F
:1043000032D4810233D4C20234D4440335D481037D
:1043100036D4C20337D4040438D4410439D48204D7
:104320003AD410F0080F14BF4FF400034FF4803359
:10433000BFE74FF00043BCE70123BAE74FF000733B
:10434000B7E74023B5E78023B3E74FF48073B0E7C6
:104350004FF40073ADE74FF48063AAE74FF40063B6
:10436000A7E74FF48053A4E74FF40053A1E74FF4BD
:1043700080439EE74FF400439BE74FF4003398E7F8
:104380004FF4802395E74FF4002392E74FF4801316
:104390008FE74FF400138CE74FF4800389E700BFE9
:1043A0001000002008E0FFFD0B6810B543624B6869
:1043B0008362CC688B68C26A23430C6949692343D2
:1043C0000B4322F0F7021343C362002010BD30B547
:1043D00087B04023039300230546019110240493E2
:1043E00001A94FF4806305930294FFF72FFF41F278
:1043F000883221462846FFF747FF07B030BD30B569
:1044000087B04023039300230546019111240493B0
:1044100001A94FF4806305930294FFF717FF41F25F
:10442000883221462846FFF72FFF07B030BD30B550
:1044300087B040230393002305460191122404937F
:1044400001A94FF4806305930294FFF7FFFE41F248
:10445000883221462846FFF717FF07B030BD30B538
:1044600087B0402303930023054601911824049349
:1044700001A94FF4806305930294FFF7E7FE41F230
:10448000883221462846FFF7FFFE07B030BD30B521
:1044900087B0402303930023054601911924049318
:1044A00001A94FF4806305930294FFF7CFFE41F218
:1044B000883221462846FFF7E7FE07B030BD0000EE
:1044C00030B587B00023054601930C2440220493A5
:1044D00001A94FF48063039205930294FFF7B6FE9F
:1044E000034A21462846FFF7CFFE07B030BD00BF84
:1044F00000E1F50530B587B040230393002305465E
:104500000724049301A94FF4806301920593029458
:10451000FFF79CFE41F2883221462846FFF7B4FEA1
:1045200007B030BD10B586B000230193029303930A
:10453000049301A94FF4806305930446FFF786FEB8
:104540000B4B4FF4FA521B68B3FBF2F241F2883383
:10455000534313F1FF3308D3626B1206F9D540F2CF
:10456000FF53A363002006B010BD4FF00040FAE7F0
:104570001000002010B586B04FF4D57301930823C6
:104580000293402303930023049301A94FF4806313
:1045900005930446FFF75AFE114B4FF4FA521B687D
:1045A000B3FBF2F241F28833534313F1FF3314D3D8
:1045B000626B12F0450FF8D0626B12F0040204D067
:1045C0004023A363042006B010BD606B10F04000D0
:1045D000F9D04023A3631046F5E74FF00040F2E71F
:1045E0001000002030B587B0402303930023054618
:1045F00001913724049301A94FF480630593029439
:10460000FFF724FE41F2883221462846FFF73CFEA0
:1046100007B030BD10B586B02923029341F00041A8
:104620004023039341F48011002304460191049335
:1046300001A94FF480630593FFF708FE2046FFF7BA
:10464000B9FD06B010BD10B586B0002302220446A5
:10465000019302920493C0224FF4806301A9039254
:104660000593FFF7F3FD2046FFF77EFD06B010BD72
:1046700010B586B009230293C02303930023044698
:104680000191049301A94FF480630593FFF7DEFDC8
:104690002046FFF769FD06B010BD000030B587B0B9
:1046A0000023032201930292049340224FF480637B
:1046B0000D4601A9039205930446FFF7C7FD204B61
:1046C0004FF4FA521B68B3FBF2F241F288335343C2
:1046D00013F1FF332BD3626B12F0450FF8D0636BED
:1046E0005A0703D50420A06307B030BD616B11F0F9
:1046F000010101D00120F6E72369DBB2032B19D1B8
:1047000040F2FF53A3632046FFF7B3FD10F460436C
:1047100003D1000C28801846E6E743040CD410F4BB
:10472000004F14BF4FF480504FF48030DCE74FF05F
:104730000040D9E70120D7E74FF40050D4E700BF8D
:104740001000002030B587B04023039300230546B6
:1047500001910D24049301A94FF480630593029401
:10476000FFF774FD41F2883221462846FFF78CFDA1
:1047700007B030BD034B1A1803EB8003107A5B6857
:104780005B68184720010020064B1A5C42B90122E1
:104790001A541A1803EB8003107A5B681B681847D9
:1047A000002070472001002030B4054C251804EB90
:1047B000800460688468287AA44630BC604700BFE3
:1047C0002001002030B4054C251804EB80046068FB
:1047D000C468287AA44630BC604700BF200100208E
:1047E000054B10B41C1803EB8003207A5B685DF85E
:1047F000044B1B69184700BF200100204288437802
:10480000007843EA022340EA032070470B0A017054
:1048100043700B0C090E8370C1707047024400F89E
:10482000011B9042FBD17047154BF0B500252A467D
:104830001C461E68A6B10768BE4212D15F68866832
:10484000B7420ED19F684669B7420AD1B1B904EBAD
:1048500002129389B3F5807F14BF00201020F0BDB1
:1048600001250132082A03F11003E2D10DB1002025
:10487000F0BD02290CBF00201220F0BD1020F0BDB9
:104880009C000020F0B51C4C0768002322462568D8
:10489000BD4207D166688568AE4203D1A668456906
:1048A000AE421FD00133082B04F11004EFD10023D6
:1048B0001D0156598EB95419575185684069656074
:1048C000A060A681A9B902EB03118989013189B2DF
:1048D00002EB0312581C9181F0BD0133082BE7D184
:1048E0000020F0BD0029EED002EB031189890029D8
:1048F000F6D14FF48071EBE79C00002001380728C7
:104900000ED8094A0301D118898921F4807080B238
:1049100008B1481E80B2D118888118B9D0507047AC
:1049200002207047002070479C000020C3690239B4
:10493000023B99423DBF4389006B01FB030000200D
:104940007047C36A02680433490A5289B1FBF2F125
:10495000186830B1814202D3091A0833F8E7586861
:1049600008447047026810B552B111460B4611F861
:10497000014B202C0CD93A2CF8D1511C8B4202D07F
:104980004FF0FF3010BD1278302AF9D101330360A7
:10499000002010BD01380A4411F8013B00F8013F26
:1049A0009142F9D17047CA7E8B7E032843EA0223E5
:1049B00001BF487D0A7D42EA002243EA02431846CD
:1049C0007047C2F307238A76CB760378032B01BFA7
:1049D000120C0A75120A4A757047F8B5046A00236A
:1049E000651E18462E2615F8012F202A00F1010019
:1049F0000AD0052A08BFE522092802BFCF180133D3
:104A00007E72CF1801337A720B28ECD10B4400224E
:104A10005A72E37A0B7204F11C00FFF7EFFE086094
:104A200004F11600FFF7EAFEC880000C8880F8BD8C
:104A3000F8B5456B00F13807044601232A4639468C
:104A40004078FFF7BFFEA0B9A36A226AE070EB1AB4
:104A5000934201D30020F8BDA678012EFAD9236A2B
:104A600060781D442A4601233946FFF7ABFE013E1C
:104A7000F3E70120F8BDC3780BB1FFF7D9BF1846A3
:104A80007047F8B50446FFF7F6FF0546002842D107
:104A90002378032B37D12779012F34D104F138063D
:104AA00001464FF400723046FFF7B8FE552384F8F4
:104AB0003632AA2384F8373252234122722184F8F5
:104AC000383084F83930612384F83A3084F83B2058
:104AD00084F81E2284F81F3284F81C1284F81D12F8
:104AE00004F508706169FFF791FE216904F509700A
:104AF000FFF78CFE626A6078013262633B463146A2
:104B0000FFF760FE2571002211466078FFF768FE0E
:104B1000003018BF0120F8BD436B8B4270B50646CC
:104B20000D4612D0FFF7A7FF044660B92A460123BD
:104B300006F138017078FFF737FE00281CBF4FF0F0
:104B4000FF3501247563204670BD0024FBE700009B
:104B5000002310B5C3704FF0FF3343630446FFF7E3
:104B6000DBFF30BB94F8372294F8363243EA022355
:104B70004AF6552293421ED194F83830E92B05D0DD
:104B8000A36B104A03F0FF13934216D104F16E0099
:104B9000FFF734FE0C4B20F07F4098420FD004F119
:104BA0008A00FFF72BFE094B984214BF0220002019
:104BB00010BD042010BD032010BD022010BD002038
:104BC00010BD00BFEB0090004641540046415433F5
:104BD00001292DE9F04705460C46174672D9C369ED
:104BE00099426FD20378022B3FD0032B50D0012B78
:104BF00068D101EB5108816A01EB5821FFF78CFF66
:104C0000064638BB05F1380908F1010AC8F308085F
:104C100014F001041FBF19F8083003F00F023B0124
:104C200003F0F00314BF1343FBB209F80830A96A7C
:104C30000123EB7001EB5A212846FFF76DFF064672
:104C400040B9CAF3080A44B1C7F3071709F80A7054
:104C50000123EB703046BDE8F08719F80A30C7F33E
:104C6000032723F00F031F43F0E7816A01EB1421B0
:104C7000FFF752FF06460028ECD1640005F1380327
:104C800004F4FF741A191F55C7F307275770DFE79D
:104C9000816A01EBD411FFF73FFF06460028D9D106
:104CA000A40005F1380304F4FE741C442046FFF709
:104CB000A5FD27F0704700F0704139432046FFF70B
:104CC000A5FDC5E70226C5E70129F8B505460C464E
:104CD00052D9C36999424FD20378022B29D0032BB2
:104CE00038D0012B48D101EB5106816A01EB5621E6
:104CF000FFF712FF10B14FF0FF30F8BD771CA96A23
:104D0000C6F308062E4401EB5721284696F8386072
:104D1000FFF702FF0028EED1C7F308073D44E30781
:104D200095F8380046EA00204CBF0009C0F30B009C
:104D3000F8BD816A01EB1421FFF7EEFE0028DAD1FD
:104D40006400383504F4FF742B19285D5B7840EA61
:104D50000320F8BD816A01EBD411FFF7DDFE0028C6
:104D6000C9D1A40005F1380004F4FE742044FFF713
:104D700045FD20F07040F8BD0120F8BDB1F5001FE1
:104D8000F8B506460D4601D30220F8BDCA06FBD190
:104D9000826804687161C2B92378022B01D9E36A81
:104DA000A3B92389B3EB551FEED9E36AF361F36925
:104DB000B261002BE8D003EB55233834C5F3080566
:104DC0002C44F36134620020F8BD134667891A460B
:104DD0007F02BD42114604D22046FFF7A7FDF061D5
:104DE000E5E73068FFF770FF431C024606D0012854
:104DF000CAD9E3699842C7D2ED1BEAE70120F8BDA2
:104E00002DE9F041804605680F4671B92E69F6B16B
:104E1000EB699E4228BF01263446EB6901349C426F
:104E200018D3012E15D8002409E02846FFF74CFFBF
:104E30000128044637D9431C04D14FF0FF342046E3
:104E4000BDE8F081EB699842F9D33E46E4E70126DC
:104E5000E2E702242146D8F80000FFF735FF30B121
:104E6000012820D00130E8D0B442D6D1DBE74FF0A2
:104E7000FF3221462846FFF7ABFE90B957B9EA69E1
:104E80006B692C61023A93420FD92B7943F00103ED
:104E90002B71D4E7224639462846FFF799FE0028B1
:104EA000EDD00128C9D00124C9E7013B6B61ECE7D3
:104EB000F8B50D46012D0746114601D80220F8BD70
:104EC0000468E3699D42F9D22AB14FF0FF322046CF
:104ED000FFF77EFE08BB29463868FFF7F5FE064659
:104EE00008B90020F8BD0128E8D0431C14D00022E6
:104EF00029462046FFF76CFE78B9E2696369911E86
:104F00008B4205D201336361237943F0010323719E
:104F100096423546DFD3E4E70120F8BD40B1A1F168
:104F20000B03012B04D90F2902D0C06801F064B82B
:104F3000704738B50D460446F0B103687BB11A7866
:104F4000D2B18188DA88914216D1D86801F04BF845
:104F5000034630B90F202B6038BD2368FBE70920DA
:104F6000F9E723685878FFF705FC10F00100F4D04A
:104F700000212068FFF7D2FF09200023EBE7C36977
:104F80002DE9F04705460F46ABB1426902F1200812
:104F9000B8F5001F0FD2C8F308090468B9F1000F73
:104FA0004FD181690133C36141B92389B3EB581FE4
:104FB00047D80023EB610420BDE8F0876389013BFB
:104FC00013EA58233DD12046FFF77EFE012806460E
:104FD00002D80220BDE8F087421C02D10120BDE8C2
:104FE000F087E369984226D3002FE2D0A9692846CA
:104FF000FFF706FF0646002837D00128E9D0431CFA
:10500000ECD02046FFF737FD07460028E6D10146E1
:105010004FF4007204F13800FFF700FC31462046DF
:10502000FFF784FC4FF0010A606363899F4210D34D
:10503000636BDF1B6763AE6131462046FFF776FC8A
:10504000E86138344C44C5F814802C620020BDE877
:10505000F08784F803A02046FFF7EAFC0028BDD1C2
:10506000636B013301376363DFE70720BDE8F08737
:105070002DE9F8430B7806682F2B04460D4601D026
:105080005C2B0AD12A4613782F2B154602F1010218
:10509000F9D05C2BF7D0002300E0B369A3602B7834
:1050A0001F2B33D9DFF8B88104F124070B2220210C
:1050B0003846FFF7B3FB2B4613F801292E2A2ED0D2
:1050C00000211A4608464FF0080E12F8013F202B27
:1050D00000F101000BD92F2B67D12A18501B12F8B1
:1050E00001EBBEF12F0FF9D0BEF15C0FF6D0002915
:1050F00071D094F82420E52A04BF052284F82420E6
:10510000202B8CBF00230423054421E0802384F856
:105110002F3020460021BDE8F843FFF72FBE04F1F1
:105120002300002113F8012F2E2A01F1010104D1DF
:10513000032950D000F8012FF4E72F2A03D05C2A6E
:1051400001D0202A47D8202A0D448CBF20232423B5
:1051500084F82F3000212046D4F80090FFF70EFE8F
:1051600000283DD1E1694846FFF7D6FC002837D139
:10517000236A1A78002A46D0DA7A02F03F02A27136
:10518000DA7A11070CD403F10B0E394613F8012B10
:1051900011F801CB9E45A2EB0C021FD0002AF5D0DE
:1051A00000212046FFF7EBFEDAE75C2B95D02E2B93
:1051B00043D08E450FD913F0800F18BF803BDFF826
:1051C000A49018BF18F8033019F801CFBCF1000FF4
:1051D0003AD06345F8D10620BDE8F883002ADFD134
:1051E00094F82F30B0B1042838D113F0200F03F019
:1051F00004030AD0002B3FF459AF802384F82F30EA
:105200000020BDE8F8830420EAE7002B08BF052052
:10521000BDE8F8835A0721D4A379DB060AD5636970
:105220003078C3F3080306F138011944FFF7BBFBDC
:10523000A0603BE70520BDE8F883BEF10B0FCAD0A4
:1052400008214FF00B0E40E7A3F1610CBCF1190FE0
:1052500001D8203BDBB27B54013136E7BDE8F8834F
:10526000B0C800082FC9000870B5002105460668BF
:10527000FFF784FD044628BBE9693046FFF74CFC84
:105280000446F8B92B6A1B78E52B14D1E96930463E
:10529000FFF742FC044660B901462022286AFFF766
:1052A000BDFA0B2205F12401286AFFF773FB0123E5
:1052B000F370204670BD002BE8D001212846FFF78F
:1052C0005EFED7E7042C08BF0724F2E72DE9F04380
:1052D000002385B00B600F461546FFF743FB061E03
:1052E0003EDBA24B53F82640002C3BD0E06800F098
:1052F0007AFE00283AD10F2005B0BDE8F08360782F
:10530000FFF738FAC10737D4002D00F02D8110F0D7
:105310000400F1D00A20EFE703200135042D4DD120
:10532000042805D10120E7E70428FBD0012801D992
:105330000D20E1E700264BE00327A8E0B9F1000FBC
:10534000F6D0022F4FEA410018BF4018434418BF5F
:1053500001F00101E3620CBF014601EB5001B2E034
:105360000B20C9E70C20C7E70320C5E73C60237882
:1053700005F0FE05002BC2D10023F0B2237060704F
:10538000FFF702FAC207EFD40DB14307C2D40021E0
:105390002046FFF7DDFB0228C6D104F5FF7500218A
:1053A00015F8040C10B12846FFF728FA4DF8210033
:1053B0000131042905F11005F2D100255DF82560C1
:1053C000002EA9D031462046FFF7C2FB0128A4D801
:1053D00094F8442094F8433043EA0223B3F5007F65
:1053E000A6D194F84F3094F84E5055EA032504D1D5
:1053F00004F15C00FFF702FA054694F84880256244
:1054000008F1FF33012B84F8028091D894F845709D
:10541000BBB205FB08F86381002B89D07B1E3B42A1
:1054200086D194F84A3094F8499049EA032919F052
:105430000F0FA4F808907FF47BAF94F84C1094F809
:105440004B0050EA012003D104F15800FFF7D6F9D0
:1054500094F8472094F8463053EA02233FF468AFAB
:1054600003EB191242449042FFF462AF811AB1FB80
:10547000F7F100293FF45CAF4FF6F57081423FF63B
:105480005BAF40F6F577B9428CBF022701270231A6
:1054900033443244032FE1616662A36222637FF4E6
:1054A0004DAF94F8632094F8623053EA02237FF4FE
:1054B0003FAFB9F1000F7FF43BAF04F16400FFF799
:1054C0009DF9E062890001F2FF11B5EB512FFFF465
:1054D0002FAF4FF0FF3363612361032F4FF0800341
:1054E00023712FD194F8692094F8683043EA02239D
:1054F000012B27D1711C2046FFF70EFB10BB94F83F
:10550000372294F83632207143EA02234AF65522B4
:10551000934217D104F13800FFF770F9144B984209
:1055200010D104F50770FFF769F9124B984209D1C1
:1055300004F50870FFF762F9606104F50970FFF780
:105540005DF920610C4A2770138801339BB21380E8
:10555000E3800A4A0023A36119469858844208BF91
:1055600099501033802BF8D10020C5E69800002018
:1055700052526141727241611C0100209C00002066
:10558000F0B585B01746019004A8009140F8041DBD
:10559000FFF7E8F9061E34DB1C4D55F826409CB198
:1055A00000231B4A19469858844208BF995010336B
:1055B000802BF8D1E06800F011FD18B902242046D4
:1055C00005B0F0BD00232370019989B9019C45F80D
:1055D0002640002CF3D0012F15D101A900226846E6
:1055E000FFF774FE044601460198FFF797FCE6E7D3
:1055F000002301F80C3BF0B200F0E1FC0028DDD004
:10560000E4E70B24DBE70024D9E700BF9800002083
:105610009C0000202DE9F04790B09046019104468F
:10562000002800F0D48002F03F052A4603A901A813
:10563000FFF74CFE074660BB10AE039B46F8303DBB
:1056400001993046FFF714FD58B99DF93F30002B02
:1056500016DB15F03E0F14BF012100213046FFF785
:10566000E3F818F01C0F76D0B8B104280ED17249B7
:1056700000231A0152582AB93046FFF7F5FD05E01C
:105680000620EEE70133082BF3D1122045F0080580
:1056900060B10023236007468FE09DF8163013F0B9
:1056A000110F63D118F0040F40F0C08028073CD5DB
:1056B00002F002FB024601460C980E30FFF7A6F8F6
:1056C0000C9811461630FFF7A1F80C9BDDF80C90F2
:1056D0002022DA72DDF830A099F800005146FFF779
:1056E00062F90022514680464846FFF76AF90C9B52
:1056F00000221A775A779A77DA77039B0121D970BB
:10570000B8F1000F11D041463046D3F83490FFF77E
:10571000CFFB0028BDD149460398FFF7FDF9039A56
:1057200008F1FF3313610028B3D1039B28075B6B9B
:10573000636248BF45F0400515F0FE0F0C9BA36265
:1057400014BF012100213046FFF79CF8206100289A
:105750003FD102209DE700289BD19DF81630DA0644
:1057600066D418F0020FE0D0DB07DED5072090E703
:105770002068FFF7A9FA0128014626D9421C5042A9
:105780005041A5EB080500284CD0E161002880D1EC
:10579000C5F308038BB1DDF80C804046FFF7C6F86F
:1057A0000028D6D000EB552222620123314698F81A
:1057B0000100FEF7F9FF00283CD139460398FFF7B6
:1057C000ADFB384610B0BDE8F0870220D9E70927C5
:1057D000F7E7039EDDF8308030784146FFF7E3F8C5
:1057E000A06008F11C00FFF709F8F388266000218B
:1057F00004F13006E060A380E162257561752162E5
:10580000A1614FF400723046FFF708F8AB06D4D51B
:10581000E568002DD1D0039BA168B3F80A80A5618B
:105820004FEA4828A845A3D30020AEE7082030E778
:1058300004202EE701202CE79C0000202DE9F04FEA
:105840009B4685B000238946CBF8003003A9044667
:105850001746FFF76EFB054608B9657D0DB1294671
:1058600033E0237D9A0708D407210398FFF756FBFE
:105870000725284605B0BDE8F08FA369FB4228BF85
:10588000DF4304F130030093D7B1A169C1F30803EA
:10589000002B40F09380039B5B89013B13EA51236B
:1058A000019325D131B9A068A8B901462046FFF778
:1058B000A7FA04E0E36A63B12046FFF742F850B963
:1058C000237D43F04003237500210398FFF726FB57
:1058D000CFE7E169EAE7012802D102256575BEE755
:1058E000431C01D10125F9E7A368E06103B9A06079
:1058F00094F91430002B0CDA0398226A009940784E
:105900000123FEF75FFF0028ECD1237D03F07F0326
:105910002375DDF80CA0E1695046FFF707F820B9C0
:105920000225657529465046D0E7019B7E0A03EBA8
:10593000000831D0019ABAF80A309AF801003244CE
:105940009A4284BF019A9E1A334642464946FEF760
:1059500039FF0028C6D1216AA1EB08018E420AD97D
:105960004FF4007209EB41210098FFF713F8237DF3
:1059700003F07F0323757602A369E2683344A361D1
:105980009A422CBFE260E360DBF800303344B1445C
:10599000CBF80030BF1B77E7236A98450CD0A2698B
:1059A000E3689A4208D20123424600999AF801001E
:1059B000FEF7FAFE002895D1C4F82080A069009B6C
:1059C000C0F30800C0F50076BE4228BF3E4618442A
:1059D00032464946FEF7DEFF237D63F07F032375E1
:1059E000CAE74368002B37B5044614DB5D1C03444B
:1059F0003C2D19730BDD01AB2A4600F10C01006848
:105A0000FFF71CFF019B5D1B18BF4FF0FF35A3681C
:105A100065600133A36003B030BD4268002A13B54E
:105A2000044603DA4FF0FF3002B010BD00F10C0164
:105A300001AB0068FFF702FF0028F3D16268019B09
:105A40009A42EFD1A068EFE7F7B501A90446FFF746
:105A500070FA0546002842D1237D5A063FD51B0621
:105A600014D50198226A4078012304F13001FEF731
:105A7000A9FE38B101210198FFF750FA0125284607
:105A800003B0F0BD237D03F07F03237502F014F90A
:105A9000616A07460198FFF73FF80546F8B9A66A1C
:105AA000F37A43F02003F372A26820683146FEF7D0
:105AB00088FFE16806F11C00FEF7A8FE394606F1F2
:105AC0001600FEF7A3FE0198B5740123F574C370A8
:105AD000FEF7D7FF237D23F04003054623752946B3
